{
  "address": "0x37b658623353aa7fCED65942732dE4a5C307bCCd",
  "abi": [
    {
      "inputs": [
        {
          "internalType": "uint256",
          "name": "supply_",
          "type": "uint256"
        },
        {
          "internalType": "uint8",
          "name": "sharedDecimals_",
          "type": "uint8"
        },
        {
          "internalType": "address",
          "name": "lzEndpoint_",
          "type": "address"
        }
      ],
      "stateMutability": "nonpayable",
      "type": "constructor"
    },
    {
      "anonymous": false,
      "inputs": [
        {
          "indexed": true,
          "internalType": "address",
          "name": "owner",
          "type": "address"
        },
        {
          "indexed": true,
          "internalType": "address",
          "name": "spender",
          "type": "address"
        },
        {
          "indexed": false,
          "internalType": "uint256",
          "name": "value",
          "type": "uint256"
        }
      ],
      "name": "Approval",
      "type": "event"
    },
    {
      "anonymous": false,
      "inputs": [
        {
          "indexed": true,
          "internalType": "uint16",
          "name": "_srcChainId",
          "type": "uint16"
        },
        {
          "indexed": false,
          "internalType": "bytes",
          "name": "_srcAddress",
          "type": "bytes"
        },
        {
          "indexed": false,
          "internalType": "uint64",
          "name": "_nonce",
          "type": "uint64"
        },
        {
          "indexed": false,
          "internalType": "bytes32",
          "name": "_hash",
          "type": "bytes32"
        }
      ],
      "name": "CallOFTReceivedSuccess",
      "type": "event"
    },
    {
      "anonymous": false,
      "inputs": [
        {
          "indexed": true,
          "internalType": "address",
          "name": "_dst",
          "type": "address"
        },
        {
          "indexed": false,
          "internalType": "uint256",
          "name": "_amount",
          "type": "uint256"
        }
      ],
      "name": "Deposit",
      "type": "event"
    },
    {
      "anonymous": false,
      "inputs": [
        {
          "indexed": false,
          "internalType": "uint16",
          "name": "_srcChainId",
          "type": "uint16"
        },
        {
          "indexed": false,
          "internalType": "bytes",
          "name": "_srcAddress",
          "type": "bytes"
        },
        {
          "indexed": false,
          "internalType": "uint64",
          "name": "_nonce",
          "type": "uint64"
        },
        {
          "indexed": false,
          "internalType": "bytes",
          "name": "_payload",
          "type": "bytes"
        },
        {
          "indexed": false,
          "internalType": "bytes",
          "name": "_reason",
          "type": "bytes"
        }
      ],
      "name": "MessageFailed",
      "type": "event"
    },
    {
      "anonymous": false,
      "inputs": [
        {
          "indexed": false,
          "internalType": "address",
          "name": "_address",
          "type": "address"
        }
      ],
      "name": "NonContractAddress",
      "type": "event"
    },
    {
      "anonymous": false,
      "inputs": [
        {
          "indexed": true,
          "internalType": "address",
          "name": "previousOwner",
          "type": "address"
        },
        {
          "indexed": true,
          "internalType": "address",
          "name": "newOwner",
          "type": "address"
        }
      ],
      "name": "OwnershipTransferred",
      "type": "event"
    },
    {
      "anonymous": false,
      "inputs": [
        {
          "indexed": true,
          "internalType": "uint16",
          "name": "_srcChainId",
          "type": "uint16"
        },
        {
          "indexed": true,
          "internalType": "address",
          "name": "_to",
          "type": "address"
        },
        {
          "indexed": false,
          "internalType": "uint256",
          "name": "_amount",
          "type": "uint256"
        }
      ],
      "name": "ReceiveFromChain",
      "type": "event"
    },
    {
      "anonymous": false,
      "inputs": [
        {
          "indexed": false,
          "internalType": "uint16",
          "name": "_srcChainId",
          "type": "uint16"
        },
        {
          "indexed": false,
          "internalType": "bytes",
          "name": "_srcAddress",
          "type": "bytes"
        },
        {
          "indexed": false,
          "internalType": "uint64",
          "name": "_nonce",
          "type": "uint64"
        },
        {
          "indexed": false,
          "internalType": "bytes32",
          "name": "_payloadHash",
          "type": "bytes32"
        }
      ],
      "name": "RetryMessageSuccess",
      "type": "event"
    },
    {
      "anonymous": false,
      "inputs": [
        {
          "indexed": true,
          "internalType": "uint16",
          "name": "_dstChainId",
          "type": "uint16"
        },
        {
          "indexed": true,
          "internalType": "address",
          "name": "_from",
          "type": "address"
        },
        {
          "indexed": true,
          "internalType": "bytes32",
          "name": "_toAddress",
          "type": "bytes32"
        },
        {
          "indexed": false,
          "internalType": "uint256",
          "name": "_amount",
          "type": "uint256"
        }
      ],
      "name": "SendToChain",
      "type": "event"
    },
    {
      "anonymous": false,
      "inputs": [
        {
          "indexed": false,
          "internalType": "uint16",
          "name": "_dstChainId",
          "type": "uint16"
        },
        {
          "indexed": false,
          "internalType": "uint16",
          "name": "_type",
          "type": "uint16"
        },
        {
          "indexed": false,
          "internalType": "uint256",
          "name": "_minDstGas",
          "type": "uint256"
        }
      ],
      "name": "SetMinDstGas",
      "type": "event"
    },
    {
      "anonymous": false,
      "inputs": [
        {
          "indexed": false,
          "internalType": "address",
          "name": "precrime",
          "type": "address"
        }
      ],
      "name": "SetPrecrime",
      "type": "event"
    },
    {
      "anonymous": false,
      "inputs": [
        {
          "indexed": false,
          "internalType": "uint16",
          "name": "_remoteChainId",
          "type": "uint16"
        },
        {
          "indexed": false,
          "internalType": "bytes",
          "name": "_path",
          "type": "bytes"
        }
      ],
      "name": "SetTrustedRemote",
      "type": "event"
    },
    {
      "anonymous": false,
      "inputs": [
        {
          "indexed": false,
          "internalType": "uint16",
          "name": "_remoteChainId",
          "type": "uint16"
        },
        {
          "indexed": false,
          "internalType": "bytes",
          "name": "_remoteAddress",
          "type": "bytes"
        }
      ],
      "name": "SetTrustedRemoteAddress",
      "type": "event"
    },
    {
      "anonymous": false,
      "inputs": [
        {
          "indexed": false,
          "internalType": "bool",
          "name": "_useCustomAdapterParams",
          "type": "bool"
        }
      ],
      "name": "SetUseCustomAdapterParams",
      "type": "event"
    },
    {
      "anonymous": false,
      "inputs": [
        {
          "indexed": true,
          "internalType": "address",
          "name": "from",
          "type": "address"
        },
        {
          "indexed": true,
          "internalType": "address",
          "name": "to",
          "type": "address"
        },
        {
          "indexed": false,
          "internalType": "uint256",
          "name": "value",
          "type": "uint256"
        }
      ],
      "name": "Transfer",
      "type": "event"
    },
    {
      "anonymous": false,
      "inputs": [
        {
          "indexed": true,
          "internalType": "address",
          "name": "_src",
          "type": "address"
        },
        {
          "indexed": false,
          "internalType": "uint256",
          "name": "_amount",
          "type": "uint256"
        }
      ],
      "name": "Withdrawal",
      "type": "event"
    },
    {
      "inputs": [],
      "name": "DEFAULT_PAYLOAD_SIZE_LIMIT",
      "outputs": [
        {
          "internalType": "uint256",
          "name": "",
          "type": "uint256"
        }
      ],
      "stateMutability": "view",
      "type": "function"
    },
    {
      "inputs": [],
      "name": "NO_EXTRA_GAS",
      "outputs": [
        {
          "internalType": "uint256",
          "name": "",
          "type": "uint256"
        }
      ],
      "stateMutability": "view",
      "type": "function"
    },
    {
      "inputs": [],
      "name": "PT_SEND",
      "outputs": [
        {
          "internalType": "uint8",
          "name": "",
          "type": "uint8"
        }
      ],
      "stateMutability": "view",
      "type": "function"
    },
    {
      "inputs": [],
      "name": "PT_SEND_AND_CALL",
      "outputs": [
        {
          "internalType": "uint8",
          "name": "",
          "type": "uint8"
        }
      ],
      "stateMutability": "view",
      "type": "function"
    },
    {
      "inputs": [
        {
          "internalType": "address",
          "name": "owner",
          "type": "address"
        },
        {
          "internalType": "address",
          "name": "spender",
          "type": "address"
        }
      ],
      "name": "allowance",
      "outputs": [
        {
          "internalType": "uint256",
          "name": "",
          "type": "uint256"
        }
      ],
      "stateMutability": "view",
      "type": "function"
    },
    {
      "inputs": [
        {
          "internalType": "address",
          "name": "spender",
          "type": "address"
        },
        {
          "internalType": "uint256",
          "name": "amount",
          "type": "uint256"
        }
      ],
      "name": "approve",
      "outputs": [
        {
          "internalType": "bool",
          "name": "",
          "type": "bool"
        }
      ],
      "stateMutability": "nonpayable",
      "type": "function"
    },
    {
      "inputs": [
        {
          "internalType": "address",
          "name": "account",
          "type": "address"
        }
      ],
      "name": "balanceOf",
      "outputs": [
        {
          "internalType": "uint256",
          "name": "",
          "type": "uint256"
        }
      ],
      "stateMutability": "view",
      "type": "function"
    },
    {
      "inputs": [
        {
          "internalType": "address",
          "name": "account",
          "type": "address"
        },
        {
          "internalType": "uint256",
          "name": "amount",
          "type": "uint256"
        }
      ],
      "name": "burn",
      "outputs": [],
      "stateMutability": "nonpayable",
      "type": "function"
    },
    {
      "inputs": [
        {
          "internalType": "uint16",
          "name": "_srcChainId",
          "type": "uint16"
        },
        {
          "internalType": "bytes",
          "name": "_srcAddress",
          "type": "bytes"
        },
        {
          "internalType": "uint64",
          "name": "_nonce",
          "type": "uint64"
        },
        {
          "internalType": "bytes32",
          "name": "_from",
          "type": "bytes32"
        },
        {
          "internalType": "address",
          "name": "_to",
          "type": "address"
        },
        {
          "internalType": "uint256",
          "name": "_amount",
          "type": "uint256"
        },
        {
          "internalType": "bytes",
          "name": "_payload",
          "type": "bytes"
        },
        {
          "internalType": "uint256",
          "name": "_gasForCall",
          "type": "uint256"
        }
      ],
      "name": "callOnOFTReceived",
      "outputs": [],
      "stateMutability": "nonpayable",
      "type": "function"
    },
    {
      "inputs": [],
      "name": "circulatingSupply",
      "outputs": [
        {
          "internalType": "uint256",
          "name": "",
          "type": "uint256"
        }
      ],
      "stateMutability": "view",
      "type": "function"
    },
    {
      "inputs": [
        {
          "internalType": "uint16",
          "name": "",
          "type": "uint16"
        },
        {
          "internalType": "bytes",
          "name": "",
          "type": "bytes"
        },
        {
          "internalType": "uint64",
          "name": "",
          "type": "uint64"
        }
      ],
      "name": "creditedPackets",
      "outputs": [
        {
          "internalType": "bool",
          "name": "",
          "type": "bool"
        }
      ],
      "stateMutability": "view",
      "type": "function"
    },
    {
      "inputs": [],
      "name": "decimals",
      "outputs": [
        {
          "internalType": "uint8",
          "name": "",
          "type": "uint8"
        }
      ],
      "stateMutability": "view",
      "type": "function"
    },
    {
      "inputs": [
        {
          "internalType": "address",
          "name": "spender",
          "type": "address"
        },
        {
          "internalType": "uint256",
          "name": "subtractedValue",
          "type": "uint256"
        }
      ],
      "name": "decreaseAllowance",
      "outputs": [
        {
          "internalType": "bool",
          "name": "",
          "type": "bool"
        }
      ],
      "stateMutability": "nonpayable",
      "type": "function"
    },
    {
      "inputs": [],
      "name": "deposit",
      "outputs": [],
      "stateMutability": "payable",
      "type": "function"
    },
    {
      "inputs": [
        {
          "internalType": "uint16",
          "name": "_dstChainId",
          "type": "uint16"
        },
        {
          "internalType": "bytes32",
          "name": "_toAddress",
          "type": "bytes32"
        },
        {
          "internalType": "uint256",
          "name": "_amount",
          "type": "uint256"
        },
        {
          "internalType": "bytes",
          "name": "_payload",
          "type": "bytes"
        },
        {
          "internalType": "uint64",
          "name": "_dstGasForCall",
          "type": "uint64"
        },
        {
          "internalType": "bool",
          "name": "_useZro",
          "type": "bool"
        },
        {
          "internalType": "bytes",
          "name": "_adapterParams",
          "type": "bytes"
        }
      ],
      "name": "estimateSendAndCallFee",
      "outputs": [
        {
          "internalType": "uint256",
          "name": "nativeFee",
          "type": "uint256"
        },
        {
          "internalType": "uint256",
          "name": "zroFee",
          "type": "uint256"
        }
      ],
      "stateMutability": "view",
      "type": "function"
    },
    {
      "inputs": [
        {
          "internalType": "uint16",
          "name": "_dstChainId",
          "type": "uint16"
        },
        {
          "internalType": "bytes32",
          "name": "_toAddress",
          "type": "bytes32"
        },
        {
          "internalType": "uint256",
          "name": "_amount",
          "type": "uint256"
        },
        {
          "internalType": "bool",
          "name": "_useZro",
          "type": "bool"
        },
        {
          "internalType": "bytes",
          "name": "_adapterParams",
          "type": "bytes"
        }
      ],
      "name": "estimateSendFee",
      "outputs": [
        {
          "internalType": "uint256",
          "name": "nativeFee",
          "type": "uint256"
        },
        {
          "internalType": "uint256",
          "name": "zroFee",
          "type": "uint256"
        }
      ],
      "stateMutability": "view",
      "type": "function"
    },
    {
      "inputs": [
        {
          "internalType": "uint16",
          "name": "",
          "type": "uint16"
        },
        {
          "internalType": "bytes",
          "name": "",
          "type": "bytes"
        },
        {
          "internalType": "uint64",
          "name": "",
          "type": "uint64"
        }
      ],
      "name": "failedMessages",
      "outputs": [
        {
          "internalType": "bytes32",
          "name": "",
          "type": "bytes32"
        }
      ],
      "stateMutability": "view",
      "type": "function"
    },
    {
      "inputs": [
        {
          "internalType": "uint16",
          "name": "_srcChainId",
          "type": "uint16"
        },
        {
          "internalType": "bytes",
          "name": "_srcAddress",
          "type": "bytes"
        }
      ],
      "name": "forceResumeReceive",
      "outputs": [],
      "stateMutability": "nonpayable",
      "type": "function"
    },
    {
      "inputs": [
        {
          "internalType": "uint16",
          "name": "_version",
          "type": "uint16"
        },
        {
          "internalType": "uint16",
          "name": "_chainId",
          "type": "uint16"
        },
        {
          "internalType": "address",
          "name": "",
          "type": "address"
        },
        {
          "internalType": "uint256",
          "name": "_configType",
          "type": "uint256"
        }
      ],
      "name": "getConfig",
      "outputs": [
        {
          "internalType": "bytes",
          "name": "",
          "type": "bytes"
        }
      ],
      "stateMutability": "view",
      "type": "function"
    },
    {
      "inputs": [
        {
          "internalType": "uint16",
          "name": "_remoteChainId",
          "type": "uint16"
        }
      ],
      "name": "getTrustedRemoteAddress",
      "outputs": [
        {
          "internalType": "bytes",
          "name": "",
          "type": "bytes"
        }
      ],
      "stateMutability": "view",
      "type": "function"
    },
    {
      "inputs": [
        {
          "internalType": "address",
          "name": "spender",
          "type": "address"
        },
        {
          "internalType": "uint256",
          "name": "addedValue",
          "type": "uint256"
        }
      ],
      "name": "increaseAllowance",
      "outputs": [
        {
          "internalType": "bool",
          "name": "",
          "type": "bool"
        }
      ],
      "stateMutability": "nonpayable",
      "type": "function"
    },
    {
      "inputs": [
        {
          "internalType": "uint16",
          "name": "_srcChainId",
          "type": "uint16"
        },
        {
          "internalType": "bytes",
          "name": "_srcAddress",
          "type": "bytes"
        }
      ],
      "name": "isTrustedRemote",
      "outputs": [
        {
          "internalType": "bool",
          "name": "",
          "type": "bool"
        }
      ],
      "stateMutability": "view",
      "type": "function"
    },
    {
      "inputs": [],
      "name": "lzEndpoint",
      "outputs": [
        {
          "internalType": "contract ILayerZeroEndpoint",
          "name": "",
          "type": "address"
        }
      ],
      "stateMutability": "view",
      "type": "function"
    },
    {
      "inputs": [
        {
          "internalType": "uint16",
          "name": "_srcChainId",
          "type": "uint16"
        },
        {
          "internalType": "bytes",
          "name": "_srcAddress",
          "type": "bytes"
        },
        {
          "internalType": "uint64",
          "name": "_nonce",
          "type": "uint64"
        },
        {
          "internalType": "bytes",
          "name": "_payload",
          "type": "bytes"
        }
      ],
      "name": "lzReceive",
      "outputs": [],
      "stateMutability": "nonpayable",
      "type": "function"
    },
    {
      "inputs": [
        {
          "internalType": "uint16",
          "name": "",
          "type": "uint16"
        },
        {
          "internalType": "uint16",
          "name": "",
          "type": "uint16"
        }
      ],
      "name": "minDstGasLookup",
      "outputs": [
        {
          "internalType": "uint256",
          "name": "",
          "type": "uint256"
        }
      ],
      "stateMutability": "view",
      "type": "function"
    },
    {
      "inputs": [
        {
          "internalType": "address",
          "name": "to",
          "type": "address"
        },
        {
          "internalType": "uint256",
          "name": "amount",
          "type": "uint256"
        }
      ],
      "name": "mint",
      "outputs": [],
      "stateMutability": "nonpayable",
      "type": "function"
    },
    {
      "inputs": [],
      "name": "name",
      "outputs": [
        {
          "internalType": "string",
          "name": "",
          "type": "string"
        }
      ],
      "stateMutability": "view",
      "type": "function"
    },
    {
      "inputs": [
        {
          "internalType": "uint16",
          "name": "_srcChainId",
          "type": "uint16"
        },
        {
          "internalType": "bytes",
          "name": "_srcAddress",
          "type": "bytes"
        },
        {
          "internalType": "uint64",
          "name": "_nonce",
          "type": "uint64"
        },
        {
          "internalType": "bytes",
          "name": "_payload",
          "type": "bytes"
        }
      ],
      "name": "nonblockingLzReceive",
      "outputs": [],
      "stateMutability": "nonpayable",
      "type": "function"
    },
    {
      "inputs": [],
      "name": "owner",
      "outputs": [
        {
          "internalType": "address",
          "name": "",
          "type": "address"
        }
      ],
      "stateMutability": "view",
      "type": "function"
    },
    {
      "inputs": [
        {
          "internalType": "uint16",
          "name": "",
          "type": "uint16"
        }
      ],
      "name": "payloadSizeLimitLookup",
      "outputs": [
        {
          "internalType": "uint256",
          "name": "",
          "type": "uint256"
        }
      ],
      "stateMutability": "view",
      "type": "function"
    },
    {
      "inputs": [],
      "name": "precrime",
      "outputs": [
        {
          "internalType": "address",
          "name": "",
          "type": "address"
        }
      ],
      "stateMutability": "view",
      "type": "function"
    },
    {
      "inputs": [],
      "name": "renounceOwnership",
      "outputs": [],
      "stateMutability": "nonpayable",
      "type": "function"
    },
    {
      "inputs": [
        {
          "internalType": "uint16",
          "name": "_srcChainId",
          "type": "uint16"
        },
        {
          "internalType": "bytes",
          "name": "_srcAddress",
          "type": "bytes"
        },
        {
          "internalType": "uint64",
          "name": "_nonce",
          "type": "uint64"
        },
        {
          "internalType": "bytes",
          "name": "_payload",
          "type": "bytes"
        }
      ],
      "name": "retryMessage",
      "outputs": [],
      "stateMutability": "payable",
      "type": "function"
    },
    {
      "inputs": [
        {
          "internalType": "address",
          "name": "_from",
          "type": "address"
        },
        {
          "internalType": "uint16",
          "name": "_dstChainId",
          "type": "uint16"
        },
        {
          "internalType": "bytes32",
          "name": "_toAddress",
          "type": "bytes32"
        },
        {
          "internalType": "uint256",
          "name": "_amount",
          "type": "uint256"
        },
        {
          "internalType": "bytes",
          "name": "_payload",
          "type": "bytes"
        },
        {
          "internalType": "uint64",
          "name": "_dstGasForCall",
          "type": "uint64"
        },
        {
          "components": [
            {
              "internalType": "address payable",
              "name": "refundAddress",
              "type": "address"
            },
            {
              "internalType": "address",
              "name": "zroPaymentAddress",
              "type": "address"
            },
            {
              "internalType": "bytes",
              "name": "adapterParams",
              "type": "bytes"
            }
          ],
          "internalType": "struct ICommonOFT.LzCallParams",
          "name": "_callParams",
          "type": "tuple"
        }
      ],
      "name": "sendAndCall",
      "outputs": [],
      "stateMutability": "payable",
      "type": "function"
    },
    {
      "inputs": [
        {
          "internalType": "address",
          "name": "_from",
          "type": "address"
        },
        {
          "internalType": "uint16",
          "name": "_dstChainId",
          "type": "uint16"
        },
        {
          "internalType": "bytes32",
          "name": "_toAddress",
          "type": "bytes32"
        },
        {
          "internalType": "uint256",
          "name": "_amount",
          "type": "uint256"
        },
        {
          "components": [
            {
              "internalType": "address payable",
              "name": "refundAddress",
              "type": "address"
            },
            {
              "internalType": "address",
              "name": "zroPaymentAddress",
              "type": "address"
            },
            {
              "internalType": "bytes",
              "name": "adapterParams",
              "type": "bytes"
            }
          ],
          "internalType": "struct ICommonOFT.LzCallParams",
          "name": "_callParams",
          "type": "tuple"
        }
      ],
      "name": "sendFrom",
      "outputs": [],
      "stateMutability": "payable",
      "type": "function"
    },
    {
      "inputs": [
        {
          "internalType": "uint16",
          "name": "_version",
          "type": "uint16"
        },
        {
          "internalType": "uint16",
          "name": "_chainId",
          "type": "uint16"
        },
        {
          "internalType": "uint256",
          "name": "_configType",
          "type": "uint256"
        },
        {
          "internalType": "bytes",
          "name": "_config",
          "type": "bytes"
        }
      ],
      "name": "setConfig",
      "outputs": [],
      "stateMutability": "nonpayable",
      "type": "function"
    },
    {
      "inputs": [
        {
          "internalType": "uint16",
          "name": "_dstChainId",
          "type": "uint16"
        },
        {
          "internalType": "uint16",
          "name": "_packetType",
          "type": "uint16"
        },
        {
          "internalType": "uint256",
          "name": "_minGas",
          "type": "uint256"
        }
      ],
      "name": "setMinDstGas",
      "outputs": [],
      "stateMutability": "nonpayable",
      "type": "function"
    },
    {
      "inputs": [
        {
          "internalType": "uint16",
          "name": "_dstChainId",
          "type": "uint16"
        },
        {
          "internalType": "uint256",
          "name": "_size",
          "type": "uint256"
        }
      ],
      "name": "setPayloadSizeLimit",
      "outputs": [],
      "stateMutability": "nonpayable",
      "type": "function"
    },
    {
      "inputs": [
        {
          "internalType": "address",
          "name": "_precrime",
          "type": "address"
        }
      ],
      "name": "setPrecrime",
      "outputs": [],
      "stateMutability": "nonpayable",
      "type": "function"
    },
    {
      "inputs": [
        {
          "internalType": "uint16",
          "name": "_version",
          "type": "uint16"
        }
      ],
      "name": "setReceiveVersion",
      "outputs": [],
      "stateMutability": "nonpayable",
      "type": "function"
    },
    {
      "inputs": [
        {
          "internalType": "uint16",
          "name": "_version",
          "type": "uint16"
        }
      ],
      "name": "setSendVersion",
      "outputs": [],
      "stateMutability": "nonpayable",
      "type": "function"
    },
    {
      "inputs": [
        {
          "internalType": "uint16",
          "name": "_remoteChainId",
          "type": "uint16"
        },
        {
          "internalType": "bytes",
          "name": "_path",
          "type": "bytes"
        }
      ],
      "name": "setTrustedRemote",
      "outputs": [],
      "stateMutability": "nonpayable",
      "type": "function"
    },
    {
      "inputs": [
        {
          "internalType": "uint16",
          "name": "_remoteChainId",
          "type": "uint16"
        },
        {
          "internalType": "bytes",
          "name": "_remoteAddress",
          "type": "bytes"
        }
      ],
      "name": "setTrustedRemoteAddress",
      "outputs": [],
      "stateMutability": "nonpayable",
      "type": "function"
    },
    {
      "inputs": [
        {
          "internalType": "bool",
          "name": "_useCustomAdapterParams",
          "type": "bool"
        }
      ],
      "name": "setUseCustomAdapterParams",
      "outputs": [],
      "stateMutability": "nonpayable",
      "type": "function"
    },
    {
      "inputs": [],
      "name": "sharedDecimals",
      "outputs": [
        {
          "internalType": "uint8",
          "name": "",
          "type": "uint8"
        }
      ],
      "stateMutability": "view",
      "type": "function"
    },
    {
      "inputs": [
        {
          "internalType": "bytes4",
          "name": "interfaceId",
          "type": "bytes4"
        }
      ],
      "name": "supportsInterface",
      "outputs": [
        {
          "internalType": "bool",
          "name": "",
          "type": "bool"
        }
      ],
      "stateMutability": "view",
      "type": "function"
    },
    {
      "inputs": [],
      "name": "symbol",
      "outputs": [
        {
          "internalType": "string",
          "name": "",
          "type": "string"
        }
      ],
      "stateMutability": "view",
      "type": "function"
    },
    {
      "inputs": [],
      "name": "token",
      "outputs": [
        {
          "internalType": "address",
          "name": "",
          "type": "address"
        }
      ],
      "stateMutability": "view",
      "type": "function"
    },
    {
      "inputs": [],
      "name": "totalSupply",
      "outputs": [
        {
          "internalType": "uint256",
          "name": "",
          "type": "uint256"
        }
      ],
      "stateMutability": "view",
      "type": "function"
    },
    {
      "inputs": [
        {
          "internalType": "address",
          "name": "to",
          "type": "address"
        },
        {
          "internalType": "uint256",
          "name": "amount",
          "type": "uint256"
        }
      ],
      "name": "transfer",
      "outputs": [
        {
          "internalType": "bool",
          "name": "",
          "type": "bool"
        }
      ],
      "stateMutability": "nonpayable",
      "type": "function"
    },
    {
      "inputs": [
        {
          "internalType": "address",
          "name": "from",
          "type": "address"
        },
        {
          "internalType": "address",
          "name": "to",
          "type": "address"
        },
        {
          "internalType": "uint256",
          "name": "amount",
          "type": "uint256"
        }
      ],
      "name": "transferFrom",
      "outputs": [
        {
          "internalType": "bool",
          "name": "",
          "type": "bool"
        }
      ],
      "stateMutability": "nonpayable",
      "type": "function"
    },
    {
      "inputs": [
        {
          "internalType": "address",
          "name": "newOwner",
          "type": "address"
        }
      ],
      "name": "transferOwnership",
      "outputs": [],
      "stateMutability": "nonpayable",
      "type": "function"
    },
    {
      "inputs": [
        {
          "internalType": "uint16",
          "name": "",
          "type": "uint16"
        }
      ],
      "name": "trustedRemoteLookup",
      "outputs": [
        {
          "internalType": "bytes",
          "name": "",
          "type": "bytes"
        }
      ],
      "stateMutability": "view",
      "type": "function"
    },
    {
      "inputs": [],
      "name": "useCustomAdapterParams",
      "outputs": [
        {
          "internalType": "bool",
          "name": "",
          "type": "bool"
        }
      ],
      "stateMutability": "view",
      "type": "function"
    },
    {
      "inputs": [
        {
          "internalType": "uint256",
          "name": "_amount",
          "type": "uint256"
        }
      ],
      "name": "withdraw",
      "outputs": [],
      "stateMutability": "nonpayable",
      "type": "function"
    },
    {
      "stateMutability": "payable",
      "type": "receive"
    }
  ],
  "transactionHash": "0x88388ec536f22e08157534acf0194e7067ae6cf2f14798efcc0d4bc9ba067de5",
  "args": [
    "100000000000000000000000",
    6,
    "0x93f54D755A063cE7bB9e6Ac47Eccc8e33411d706"
  ],
  "numDeployments": 1,
  "solcInputHash": "8fad059c86788f3f92c5752830ef45d5",
  "bytecode": "0x60e06040523480156200001157600080fd5b5060405162005e0f38038062005e0f8339810160408190526200003491620002bc565b6040518060400160405280600d81526020016c131e93985d1a5d994815195cdd609a1b815250604051806040016040528060048152602001631316939560e21b81525083838383838383838383818180806200009f620000996200019960201b60201c565b6200019d565b6001600160a01b0316608052505060ff1660a05250600b9050620000c48382620003b8565b50600c620000d38282620003b8565b5050506000620000e8620001ed60201b60201c565b90508060ff168360ff161115620001565760405162461bcd60e51b815260206004820152602760248201527f4f46543a20736861726564446563696d616c73206d757374206265203c3d20646044820152666563696d616c7360c81b60648201526084015b60405180910390fd5b6200016283826200049a565b6200016f90600a620005b9565b60c05250506001600d555062000190955033945088935050620001f2915050565b505050620005e7565b3390565b600080546001600160a01b038381166001600160a01b0319831681178455604051919092169283917f8be0079c531659141344cd1fd0a4f28419497f9722a3daafe3b4186f6b6457e09190a35050565b601290565b6001600160a01b0382166200024a5760405162461bcd60e51b815260206004820152601f60248201527f45524332303a206d696e7420746f20746865207a65726f20616464726573730060448201526064016200014d565b80600a60008282546200025e9190620005d1565b90915550506001600160a01b0382166000818152600860209081526040808320805486019055518481527fddf252ad1be2c89b69c2b068fc378daa952ba7f163c4a11628f55a4df523b3ef910160405180910390a35050565b505050565b600080600060608486031215620002d257600080fd5b83519250602084015160ff81168114620002eb57600080fd5b60408501519092506001600160a01b03811681146200030957600080fd5b809150509250925092565b634e487b7160e01b600052604160045260246000fd5b600181811c908216806200033f57607f821691505b6020821081036200036057634e487b7160e01b600052602260045260246000fd5b50919050565b601f821115620002b757600081815260208120601f850160051c810160208610156200038f5750805b601f850160051c820191505b81811015620003b0578281556001016200039b565b505050505050565b81516001600160401b03811115620003d457620003d462000314565b620003ec81620003e584546200032a565b8462000366565b602080601f8311600181146200042457600084156200040b5750858301515b600019600386901b1c1916600185901b178555620003b0565b600085815260208120601f198616915b82811015620004555788860151825594840194600190910190840162000434565b5085821015620004745787850151600019600388901b60f8161c191681555b5050505050600190811b01905550565b634e487b7160e01b600052601160045260246000fd5b60ff8281168282160390811115620004b657620004b662000484565b92915050565b600181815b80851115620004fd578160001904821115620004e157620004e162000484565b80851615620004ef57918102915b93841c9390800290620004c1565b509250929050565b6000826200051657506001620004b6565b816200052557506000620004b6565b81600181146200053e5760028114620005495762000569565b6001915050620004b6565b60ff8411156200055d576200055d62000484565b50506001821b620004b6565b5060208310610133831016604e8410600b84101617156200058e575081810a620004b6565b6200059a8383620004bc565b8060001904821115620005b157620005b162000484565b029392505050565b6000620005ca60ff84168362000505565b9392505050565b80820180821115620004b657620004b662000484565b60805160a05160c0516157ab62000664600039600081816135d101528181613a900152613deb0152600061071a01526000818161093b01528181610b6701528181610f52015281816110380152818161140e01528181611c200152818161230c01528181612dce015281816133990152613c7601526157ab6000f3fe6080604052600436106103635760003560e01c80638cfd8f5c116101c6578063c4461834116100f7578063eab45d9c11610095578063ed629c5c1161006f578063ed629c5c14610ab6578063f2fde38b14610ad0578063f5ecbdbc14610af0578063fc0c546a14610b1057600080fd5b8063eab45d9c14610a56578063eaffd49a14610a76578063eb8d72b714610a9657600080fd5b8063d1deba1f116100d1578063d1deba1f146109bb578063dd62ed3e146109ce578063df2a5b3b14610a21578063e6a20ae614610a4157600080fd5b8063c44618341461097d578063cbed8b9c14610993578063d0e30db0146109b357600080fd5b80639f38369a11610164578063a6c3d1651161013e578063a6c3d165146108e9578063a9059cbb14610909578063b353aaa714610929578063baf3292d1461095d57600080fd5b80639f38369a14610889578063a457c2d7146108a9578063a4c51df5146108c957600080fd5b8063950c8a74116101a0578063950c8a74146107d557806395d89b41146108025780639bdb9812146108175780639dc29fac1461086957600080fd5b80638cfd8f5c1461073c5780638da5cb5b146107745780639358928b146107c057600080fd5b80633d8b38f6116102a057806366ad5c8a1161023e578063715018a611610218578063715018a6146106c05780637533d788146106d557806376203b48146106f5578063857749b01461070857600080fd5b806366ad5c8a1461064a578063695ef6bf1461066a57806370a082311461067d57600080fd5b806342d65a8d1161027a57806342d65a8d146105b157806344770515146105d15780634c42899a146105e65780635b8c41e6146105fb57600080fd5b80633d8b38f6146105445780633f1f4fa41461056457806340c10f191461059157600080fd5b806310ddb1371161030d5780632e1a7d4d116102e75780632e1a7d4d146104ad578063313ce567146104cd578063365260b4146104ef578063395093511461052457600080fd5b806310ddb1371461044e57806318160ddd1461046e57806323b872dd1461048d57600080fd5b806307e0db171161033e57806307e0db17146103ee578063095ea7b31461040e5780630df374831461042e57600080fd5b80621d35671461037757806301ffc9a71461039757806306fdde03146103cc57600080fd5b3661037257610370610b23565b005b600080fd5b34801561038357600080fd5b506103706103923660046145f4565b610b64565b3480156103a357600080fd5b506103b76103b2366004614688565b610ded565b60405190151581526020015b60405180910390f35b3480156103d857600080fd5b506103e1610e86565b6040516103c39190614738565b3480156103fa57600080fd5b5061037061040936600461474b565b610f18565b34801561041a57600080fd5b506103b7610429366004614788565b610fc7565b34801561043a57600080fd5b506103706104493660046147b4565b610fdf565b34801561045a57600080fd5b5061037061046936600461474b565b610ffe565b34801561047a57600080fd5b50600a545b6040519081526020016103c3565b34801561049957600080fd5b506103b76104a83660046147d0565b61107c565b3480156104b957600080fd5b506103706104c8366004614811565b6110a0565b3480156104d957600080fd5b5060125b60405160ff90911681526020016103c3565b3480156104fb57600080fd5b5061050f61050a36600461483a565b611246565b604080519283526020830191909152016103c3565b34801561053057600080fd5b506103b761053f366004614788565b61129b565b34801561055057600080fd5b506103b761055f3660046148a0565b6112e7565b34801561057057600080fd5b5061047f61057f36600461474b565b60036020526000908152604090205481565b34801561059d57600080fd5b506103706105ac366004614788565b6113b3565b3480156105bd57600080fd5b506103706105cc3660046148a0565b6113c9565b3480156105dd57600080fd5b5061047f600081565b3480156105f257600080fd5b506104dd600081565b34801561060757600080fd5b5061047f6106163660046149b7565b6005602090815260009384526040808520845180860184018051928152908401958401959095209452929052825290205481565b34801561065657600080fd5b506103706106653660046145f4565b611475565b610370610678366004614a6a565b611582565b34801561068957600080fd5b5061047f610698366004614ade565b73ffffffffffffffffffffffffffffffffffffffff1660009081526008602052604090205490565b3480156106cc57600080fd5b506103706115ed565b3480156106e157600080fd5b506103e16106f036600461474b565b611601565b610370610703366004614afb565b61169b565b34801561071457600080fd5b506104dd7f000000000000000000000000000000000000000000000000000000000000000081565b34801561074857600080fd5b5061047f610757366004614bae565b600260209081526000928352604080842090915290825290205481565b34801561078057600080fd5b5060005473ffffffffffffffffffffffffffffffffffffffff165b60405173ffffffffffffffffffffffffffffffffffffffff90911681526020016103c3565b3480156107cc57600080fd5b5061047f61174a565b3480156107e157600080fd5b5060045461079b9073ffffffffffffffffffffffffffffffffffffffff1681565b34801561080e57600080fd5b506103e161175a565b34801561082357600080fd5b506103b76108323660046149b7565b6007602090815260009384526040808520845180860184018051928152908401958401959095209452929052825290205460ff1681565b34801561087557600080fd5b50610370610884366004614788565b611769565b34801561089557600080fd5b506103e16108a436600461474b565b611814565b3480156108b557600080fd5b506103b76108c4366004614788565b611944565b3480156108d557600080fd5b5061050f6108e4366004614be1565b611a15565b3480156108f557600080fd5b506103706109043660046148a0565b611aa4565b34801561091557600080fd5b506103b7610924366004614788565b611b4b565b34801561093557600080fd5b5061079b7f000000000000000000000000000000000000000000000000000000000000000081565b34801561096957600080fd5b50610370610978366004614ade565b611b59565b34801561098957600080fd5b5061047f61271081565b34801561099f57600080fd5b506103706109ae366004614c9b565b611bdb565b610370610b23565b6103706109c93660046145f4565b611c8b565b3480156109da57600080fd5b5061047f6109e9366004614d0a565b73ffffffffffffffffffffffffffffffffffffffff918216600090815260096020908152604080832093909416825291909152205490565b348015610a2d57600080fd5b50610370610a3c366004614d43565b611f0d565b348015610a4d57600080fd5b506104dd600181565b348015610a6257600080fd5b50610370610a71366004614d7f565b611fe1565b348015610a8257600080fd5b50610370610a91366004614d9a565b612048565b348015610aa257600080fd5b50610370610ab13660046148a0565b6121b4565b348015610ac257600080fd5b506006546103b79060ff1681565b348015610adc57600080fd5b50610370610aeb366004614ade565b61220e565b348015610afc57600080fd5b506103e1610b0b366004614e63565b6122c2565b348015610b1c57600080fd5b503061079b565b610b2d33346123b7565b60405134815233907fe1fffcc4923d04b559f4d29a8bfc6cda04eb5b0d3c460751c2402c5c5cc9109c9060200160405180910390a2565b337f000000000000000000000000000000000000000000000000000000000000000073ffffffffffffffffffffffffffffffffffffffff1614610c08576040517f08c379a000000000000000000000000000000000000000000000000000000000815260206004820152601e60248201527f4c7a4170703a20696e76616c696420656e64706f696e742063616c6c6572000060448201526064015b60405180910390fd5b61ffff861660009081526001602052604081208054610c2690614eb0565b80601f0160208091040260200160405190810160405280929190818152602001828054610c5290614eb0565b8015610c9f5780601f10610c7457610100808354040283529160200191610c9f565b820191906000526020600020905b815481529060010190602001808311610c8257829003601f168201915b50505050509050805186869050148015610cba575060008151115b8015610ce2575080516020820120604051610cd89088908890614efd565b6040518091039020145b610d6e576040517f08c379a000000000000000000000000000000000000000000000000000000000815260206004820152602660248201527f4c7a4170703a20696e76616c696420736f757263652073656e64696e6720636f60448201527f6e747261637400000000000000000000000000000000000000000000000000006064820152608401610bff565b610de48787878080601f01602080910402602001604051908101604052809392919081815260200183838082843760009201919091525050604080516020601f8a018190048102820181019092528881528a9350915088908890819084018382808284376000920191909152506124ac92505050565b50505050505050565b60007fffffffff0000000000000000000000000000000000000000000000000000000082167f1f7ecdf7000000000000000000000000000000000000000000000000000000001480610e8057507f01ffc9a7000000000000000000000000000000000000000000000000000000007fffffffff000000000000000000000000000000000000000000000000000000008316145b92915050565b6060600b8054610e9590614eb0565b80601f0160208091040260200160405190810160405280929190818152602001828054610ec190614eb0565b8015610f0e5780601f10610ee357610100808354040283529160200191610f0e565b820191906000526020600020905b815481529060010190602001808311610ef157829003601f168201915b5050505050905090565b610f20612570565b6040517f07e0db1700000000000000000000000000000000000000000000000000000000815261ffff821660048201527f000000000000000000000000000000000000000000000000000000000000000073ffffffffffffffffffffffffffffffffffffffff16906307e0db17906024015b600060405180830381600087803b158015610fac57600080fd5b505af1158015610fc0573d6000803e3d6000fd5b5050505050565b600033610fd58185856125f1565b5060019392505050565b610fe7612570565b61ffff909116600090815260036020526040902055565b611006612570565b6040517f10ddb13700000000000000000000000000000000000000000000000000000000815261ffff821660048201527f000000000000000000000000000000000000000000000000000000000000000073ffffffffffffffffffffffffffffffffffffffff16906310ddb13790602401610f92565b60003361108a8582856127a5565b61109585858561287c565b506001949350505050565b6110a8612af2565b33600090815260086020526040902054811115611147576040517f08c379a000000000000000000000000000000000000000000000000000000000815260206004820152602260248201527f4e61746976654f465456323a20496e73756666696369656e742062616c616e6360448201527f652e0000000000000000000000000000000000000000000000000000000000006064820152608401610bff565b6111513382612b65565b604051600090339083908381818185875af1925050503d8060008114611193576040519150601f19603f3d011682016040523d82523d6000602084013e611198565b606091505b5050905080611203576040517f08c379a000000000000000000000000000000000000000000000000000000000815260206004820152601d60248201527f4e61746976654f465456323a206661696c656420746f20756e777261700000006044820152606401610bff565b60405182815233907f7fcf532c15f0a6db0bd6d0e038bea71d30d808c7d98cb3bf7268a95bf5081b659060200160405180910390a2506112436001600d55565b50565b60008061128c8888888888888080601f016020809104026020016040519081016040528093929190818152602001838380828437600092019190915250612d2892505050565b91509150965096945050505050565b33600081815260096020908152604080832073ffffffffffffffffffffffffffffffffffffffff87168452909152812054909190610fd590829086906112e2908790614f3c565b6125f1565b61ffff83166000908152600160205260408120805482919061130890614eb0565b80601f016020809104026020016040519081016040528092919081815260200182805461133490614eb0565b80156113815780601f1061135657610100808354040283529160200191611381565b820191906000526020600020905b81548152906001019060200180831161136457829003601f168201915b505050505090508383604051611398929190614efd565b60405180910390208180519060200120149150509392505050565b6113bb612570565b6113c582826123b7565b5050565b6113d1612570565b6040517f42d65a8d00000000000000000000000000000000000000000000000000000000815273ffffffffffffffffffffffffffffffffffffffff7f000000000000000000000000000000000000000000000000000000000000000016906342d65a8d9061144790869086908690600401614f98565b600060405180830381600087803b15801561146157600080fd5b505af1158015610de4573d6000803e3d6000fd5b333014611504576040517f08c379a000000000000000000000000000000000000000000000000000000000815260206004820152602660248201527f4e6f6e626c6f636b696e674c7a4170703a2063616c6c6572206d75737420626560448201527f204c7a41707000000000000000000000000000000000000000000000000000006064820152608401610bff565b61157a8686868080601f01602080910402602001604051908101604052809392919081815260200183838082843760009201919091525050604080516020601f890181900481028201810190925287815289935091508790879081908401838280828437600092019190915250612e5a92505050565b505050505050565b61157a858585856115966020870187614ade565b6115a66040880160208901614ade565b6115b36040890189614fb6565b8080601f016020809104026020016040519081016040528093929190818152602001838380828437600092019190915250612f1992505050565b6115f5612570565b6115ff600061302a565b565b6001602052600090815260409020805461161a90614eb0565b80601f016020809104026020016040519081016040528092919081815260200182805461164690614eb0565b80156116935780601f1061166857610100808354040283529160200191611693565b820191906000526020600020905b81548152906001019060200180831161167657829003601f168201915b505050505081565b61173f8888888888888080601f0160208091040260200160405190810160405280939291908181526020018383808284376000920191909152508a92506116e89150506020890189614ade565b6116f860408a0160208b01614ade565b61170560408b018b614fb6565b8080601f01602080910402602001604051908101604052809392919081815260200183838082843760009201919091525061309f92505050565b505050505050505050565b6000611755600a5490565b905090565b6060600c8054610e9590614eb0565b73ffffffffffffffffffffffffffffffffffffffff82163314806117a4575060005473ffffffffffffffffffffffffffffffffffffffff1633145b61180a576040517f08c379a000000000000000000000000000000000000000000000000000000000815260206004820152600c60248201527f554e415554484f52495a454400000000000000000000000000000000000000006044820152606401610bff565b6113c58282612b65565b61ffff811660009081526001602052604081208054606092919061183790614eb0565b80601f016020809104026020016040519081016040528092919081815260200182805461186390614eb0565b80156118b05780601f10611885576101008083540402835291602001916118b0565b820191906000526020600020905b81548152906001019060200180831161189357829003601f168201915b505050505090508051600003611922576040517f08c379a000000000000000000000000000000000000000000000000000000000815260206004820152601d60248201527f4c7a4170703a206e6f20747275737465642070617468207265636f72640000006044820152606401610bff565b61193d600060148351611935919061501b565b8391906131c5565b9392505050565b33600081815260096020908152604080832073ffffffffffffffffffffffffffffffffffffffff8716845290915281205490919083811015611a08576040517f08c379a000000000000000000000000000000000000000000000000000000000815260206004820152602560248201527f45524332303a2064656372656173656420616c6c6f77616e63652062656c6f7760448201527f207a65726f0000000000000000000000000000000000000000000000000000006064820152608401610bff565b61109582868684036125f1565b600080611a928b8b8b8b8b8080601f01602080910402602001604051908101604052809392919081815260200183838082843760009201919091525050604080516020601f8d018190048102820181019092528b81528e93508d9250908c908c908190840183828082843760009201919091525061333f92505050565b91509150995099975050505050505050565b611aac612570565b818130604051602001611ac19392919061502e565b604080517fffffffffffffffffffffffffffffffffffffffffffffffffffffffffffffffe081840301815291815261ffff8516600090815260016020522090611b0a90826150ad565b507f8c0400cfe2d1199b1a725c78960bcc2a344d869b80590d0f2bd005db15a572ce838383604051611b3e93929190614f98565b60405180910390a1505050565b600033610fd581858561287c565b611b61612570565b600480547fffffffffffffffffffffffff00000000000000000000000000000000000000001673ffffffffffffffffffffffffffffffffffffffff83169081179091556040519081527f5db758e995a17ec1ad84bdef7e8c3293a0bd6179bcce400dff5d4c3d87db726b906020015b60405180910390a150565b611be3612570565b6040517fcbed8b9c00000000000000000000000000000000000000000000000000000000815273ffffffffffffffffffffffffffffffffffffffff7f0000000000000000000000000000000000000000000000000000000000000000169063cbed8b9c90611c5d90889088908890889088906004016151c7565b600060405180830381600087803b158015611c7757600080fd5b505af115801561173f573d6000803e3d6000fd5b61ffff86166000908152600560205260408082209051611cae9088908890614efd565b908152604080516020928190038301902067ffffffffffffffff871660009081529252902054905080611d63576040517f08c379a000000000000000000000000000000000000000000000000000000000815260206004820152602360248201527f4e6f6e626c6f636b696e674c7a4170703a206e6f2073746f726564206d65737360448201527f61676500000000000000000000000000000000000000000000000000000000006064820152608401610bff565b808383604051611d74929190614efd565b604051809103902014611e09576040517f08c379a000000000000000000000000000000000000000000000000000000000815260206004820152602160248201527f4e6f6e626c6f636b696e674c7a4170703a20696e76616c6964207061796c6f6160448201527f64000000000000000000000000000000000000000000000000000000000000006064820152608401610bff565b61ffff87166000908152600560205260408082209051611e2c9089908990614efd565b908152604080516020928190038301812067ffffffffffffffff8916600090815290845282902093909355601f88018290048202830182019052868252611ec5918991899089908190840183828082843760009201919091525050604080516020601f8a018190048102820181019092528881528a935091508890889081908401838280828437600092019190915250612e5a92505050565b7fc264d91f3adc5588250e1551f547752ca0cfa8f6b530d243b9f9f4cab10ea8e58787878785604051611efc959493929190615200565b60405180910390a150505050505050565b611f15612570565b60008111611f7f576040517f08c379a000000000000000000000000000000000000000000000000000000000815260206004820152601560248201527f4c7a4170703a20696e76616c6964206d696e47617300000000000000000000006044820152606401610bff565b61ffff83811660008181526002602090815260408083209487168084529482529182902085905581519283528201929092529081018290527f9d5c7c0b934da8fefa9c7760c98383778a12dfbfc0c3b3106518f43fb9508ac090606001611b3e565b611fe9612570565b600680547fffffffffffffffffffffffffffffffffffffffffffffffffffffffffffffff00168215159081179091556040519081527f1584ad594a70cbe1e6515592e1272a987d922b097ead875069cebe8b40c004a490602001611bd0565b3330146120b1576040517f08c379a000000000000000000000000000000000000000000000000000000000815260206004820152601f60248201527f4f4654436f72653a2063616c6c6572206d757374206265204f4654436f7265006044820152606401610bff565b6120bc308686613427565b93508473ffffffffffffffffffffffffffffffffffffffff168a61ffff167fbf551ec93859b170f9b2141bd9298bf3f64322c6f7beb2543a0cb669834118bf8660405161210b91815260200190565b60405180910390a36040517f7fcf35da00000000000000000000000000000000000000000000000000000000815273ffffffffffffffffffffffffffffffffffffffff861690637fcf35da908390612175908e908e908e908e908e908d908d908d9060040161523c565b600060405180830381600088803b15801561218f57600080fd5b5087f11580156121a3573d6000803e3d6000fd5b505050505050505050505050505050565b6121bc612570565b61ffff831660009081526001602052604090206121da828483615298565b507ffa41487ad5d6728f0b19276fa1eddc16558578f5109fc39d2dc33c3230470dab838383604051611b3e93929190614f98565b612216612570565b73ffffffffffffffffffffffffffffffffffffffff81166122b9576040517f08c379a000000000000000000000000000000000000000000000000000000000815260206004820152602660248201527f4f776e61626c653a206e6577206f776e657220697320746865207a65726f206160448201527f64647265737300000000000000000000000000000000000000000000000000006064820152608401610bff565b6112438161302a565b6040517ff5ecbdbc00000000000000000000000000000000000000000000000000000000815261ffff808616600483015284166024820152306044820152606481018290526060907f000000000000000000000000000000000000000000000000000000000000000073ffffffffffffffffffffffffffffffffffffffff169063f5ecbdbc90608401600060405180830381865afa158015612368573d6000803e3d6000fd5b505050506040513d6000823e601f3d9081017fffffffffffffffffffffffffffffffffffffffffffffffffffffffffffffffe01682016040526123ae91908101906153b2565b95945050505050565b73ffffffffffffffffffffffffffffffffffffffff8216612434576040517f08c379a000000000000000000000000000000000000000000000000000000000815260206004820152601f60248201527f45524332303a206d696e7420746f20746865207a65726f2061646472657373006044820152606401610bff565b80600a60008282546124469190614f3c565b909155505073ffffffffffffffffffffffffffffffffffffffff82166000818152600860209081526040808320805486019055518481527fddf252ad1be2c89b69c2b068fc378daa952ba7f163c4a11628f55a4df523b3ef910160405180910390a35050565b60008061255a5a60966366ad5c8a60e01b898989896040516024016124d49493929190615420565b604080517fffffffffffffffffffffffffffffffffffffffffffffffffffffffffffffffe08184030181529190526020810180517bffffffffffffffffffffffffffffffffffffffffffffffffffffffff167fffffffff0000000000000000000000000000000000000000000000000000000090931692909217909152309291906134a0565b915091508161157a5761157a868686868561352b565b60005473ffffffffffffffffffffffffffffffffffffffff1633146115ff576040517f08c379a000000000000000000000000000000000000000000000000000000000815260206004820181905260248201527f4f776e61626c653a2063616c6c6572206973206e6f7420746865206f776e65726044820152606401610bff565b73ffffffffffffffffffffffffffffffffffffffff8316612693576040517f08c379a0000000000000000000000000000000000000000000000000000000008152602060048201526024808201527f45524332303a20617070726f76652066726f6d20746865207a65726f2061646460448201527f72657373000000000000000000000000000000000000000000000000000000006064820152608401610bff565b73ffffffffffffffffffffffffffffffffffffffff8216612736576040517f08c379a000000000000000000000000000000000000000000000000000000000815260206004820152602260248201527f45524332303a20617070726f766520746f20746865207a65726f20616464726560448201527f73730000000000000000000000000000000000000000000000000000000000006064820152608401610bff565b73ffffffffffffffffffffffffffffffffffffffff83811660008181526009602090815260408083209487168084529482529182902085905590518481527f8c5be1e5ebec7d5bd14f71427d1e84f3dd0314c0f7b2291e5b200ac8c7c3b92591015b60405180910390a3505050565b73ffffffffffffffffffffffffffffffffffffffff8381166000908152600960209081526040808320938616835292905220547fffffffffffffffffffffffffffffffffffffffffffffffffffffffffffffffff81146128765781811015612869576040517f08c379a000000000000000000000000000000000000000000000000000000000815260206004820152601d60248201527f45524332303a20696e73756666696369656e7420616c6c6f77616e63650000006044820152606401610bff565b61287684848484036125f1565b50505050565b73ffffffffffffffffffffffffffffffffffffffff831661291f576040517f08c379a000000000000000000000000000000000000000000000000000000000815260206004820152602560248201527f45524332303a207472616e736665722066726f6d20746865207a65726f20616460448201527f64726573730000000000000000000000000000000000000000000000000000006064820152608401610bff565b73ffffffffffffffffffffffffffffffffffffffff82166129c2576040517f08c379a000000000000000000000000000000000000000000000000000000000815260206004820152602360248201527f45524332303a207472616e7366657220746f20746865207a65726f206164647260448201527f65737300000000000000000000000000000000000000000000000000000000006064820152608401610bff565b73ffffffffffffffffffffffffffffffffffffffff831660009081526008602052604090205481811015612a78576040517f08c379a000000000000000000000000000000000000000000000000000000000815260206004820152602660248201527f45524332303a207472616e7366657220616d6f756e742065786365656473206260448201527f616c616e636500000000000000000000000000000000000000000000000000006064820152608401610bff565b73ffffffffffffffffffffffffffffffffffffffff80851660008181526008602052604080822086860390559286168082529083902080548601905591517fddf252ad1be2c89b69c2b068fc378daa952ba7f163c4a11628f55a4df523b3ef90612ae59086815260200190565b60405180910390a3612876565b6002600d5403612b5e576040517f08c379a000000000000000000000000000000000000000000000000000000000815260206004820152601f60248201527f5265656e7472616e637947756172643a207265656e7472616e742063616c6c006044820152606401610bff565b6002600d55565b73ffffffffffffffffffffffffffffffffffffffff8216612c08576040517f08c379a000000000000000000000000000000000000000000000000000000000815260206004820152602160248201527f45524332303a206275726e2066726f6d20746865207a65726f2061646472657360448201527f73000000000000000000000000000000000000000000000000000000000000006064820152608401610bff565b73ffffffffffffffffffffffffffffffffffffffff821660009081526008602052604090205481811015612cbe576040517f08c379a000000000000000000000000000000000000000000000000000000000815260206004820152602260248201527f45524332303a206275726e20616d6f756e7420657863656564732062616c616e60448201527f63650000000000000000000000000000000000000000000000000000000000006064820152608401610bff565b73ffffffffffffffffffffffffffffffffffffffff831660008181526008602090815260408083208686039055600a80548790039055518581529192917fddf252ad1be2c89b69c2b068fc378daa952ba7f163c4a11628f55a4df523b3ef9101612798565b505050565b6000806000612d8e87612d3a886135c9565b6040805160006020820152602181019390935260c09190911b7fffffffffffffffff000000000000000000000000000000000000000000000000166041830152805160298184030181526049909201905290565b6040517f40a7bb1000000000000000000000000000000000000000000000000000000000815290915073ffffffffffffffffffffffffffffffffffffffff7f000000000000000000000000000000000000000000000000000000000000000016906340a7bb1090612e0b908b90309086908b908b9060040161545f565b6040805180830381865afa158015612e27573d6000803e3d6000fd5b505050506040513d601f19601f82011682018060405250810190612e4b91906154be565b92509250509550959350505050565b6000612e66828261366a565b905060ff8116612e8157612e7c858585856136ea565b610fc0565b7fffffffffffffffffffffffffffffffffffffffffffffffffffffffffffffffff60ff821601612eb757612e7c85858585613794565b6040517f08c379a000000000000000000000000000000000000000000000000000000000815260206004820152601c60248201527f4f4654436f72653a20756e6b6e6f776e207061636b65742074797065000000006044820152606401610bff565b6000612f27878284816139dd565b612f3085613a88565b50905080612f9a576040517f08c379a000000000000000000000000000000000000000000000000000000000815260206004820152601d60248201527f4e61746976654f465456323a20616d6f756e7420746f6f20736d616c6c0000006044820152606401610bff565b6000612fa68983613ac8565b90506000612fb788612d3a856135c9565b9050612fc7898288888887613aff565b878a73ffffffffffffffffffffffffffffffffffffffff168a61ffff167fd81fc9b8523134ed613870ed029d6170cbb73aa6a6bc311b9a642689fb9df59a8660405161301591815260200190565b60405180910390a45050979650505050505050565b6000805473ffffffffffffffffffffffffffffffffffffffff8381167fffffffffffffffffffffffff0000000000000000000000000000000000000000831681178455604051919092169283917f8be0079c531659141344cd1fd0a4f28419497f9722a3daafe3b4186f6b6457e09190a35050565b60006130b88960018467ffffffffffffffff89166139dd565b6130c187613a88565b5090508061312b576040517f08c379a000000000000000000000000000000000000000000000000000000000815260206004820152601d60248201527f4e61746976654f465456323a20616d6f756e7420746f6f20736d616c6c0000006044820152606401610bff565b60006131378b83613ac8565b90506000613150338b613149866135c9565b8b8b613cf2565b90506131608b8288888887613aff565b898c73ffffffffffffffffffffffffffffffffffffffff168c61ffff167fd81fc9b8523134ed613870ed029d6170cbb73aa6a6bc311b9a642689fb9df59a866040516131ae91815260200190565b60405180910390a450509998505050505050505050565b6060816131d381601f614f3c565b101561323b576040517f08c379a000000000000000000000000000000000000000000000000000000000815260206004820152600e60248201527f736c6963655f6f766572666c6f770000000000000000000000000000000000006044820152606401610bff565b6132458284614f3c565b845110156132af576040517f08c379a000000000000000000000000000000000000000000000000000000000815260206004820152601160248201527f736c6963655f6f75744f66426f756e64730000000000000000000000000000006044820152606401610bff565b6060821580156132ce5760405191506000825260208201604052613336565b6040519150601f8416801560200281840101858101878315602002848b0101015b818310156133075780518352602092830192016132ef565b5050858452601f017fffffffffffffffffffffffffffffffffffffffffffffffffffffffffffffffe016604052505b50949350505050565b6000806000613359338a6133528b6135c9565b8a8a613cf2565b6040517f40a7bb1000000000000000000000000000000000000000000000000000000000815290915073ffffffffffffffffffffffffffffffffffffffff7f000000000000000000000000000000000000000000000000000000000000000016906340a7bb10906133d6908d90309086908b908b9060040161545f565b6040805180830381865afa1580156133f2573d6000803e3d6000fd5b505050506040513d601f19601f8201168201806040525081019061341691906154be565b925092505097509795505050505050565b6000333073ffffffffffffffffffffffffffffffffffffffff86161480159061347c57508073ffffffffffffffffffffffffffffffffffffffff168573ffffffffffffffffffffffffffffffffffffffff1614155b1561348c5761348c8582856127a5565b61349785858561287c565b50909392505050565b6000606060008060008661ffff1667ffffffffffffffff8111156134c6576134c66148f3565b6040519080825280601f01601f1916602001820160405280156134f0576020820181803683370190505b50905060008087516020890160008d8df191503d925086831115613512578692505b828152826000602083013e909890975095505050505050565b8180519060200120600560008761ffff1661ffff1681526020019081526020016000208560405161355c91906154e2565b90815260408051918290036020908101832067ffffffffffffffff88166000908152915220919091557fe183f33de2837795525b4792ca4cd60535bd77c53b7e7030060bfcf5734d6b0c906135ba90879087908790879087906154fe565b60405180910390a15050505050565b6000806135f67f000000000000000000000000000000000000000000000000000000000000000084615580565b905067ffffffffffffffff811115610e80576040517f08c379a000000000000000000000000000000000000000000000000000000000815260206004820152601a60248201527f4f4654436f72653a20616d6f756e745344206f766572666c6f770000000000006044820152606401610bff565b6000613677826001614f3c565b835110156136e1576040517f08c379a000000000000000000000000000000000000000000000000000000000815260206004820152601360248201527f746f55696e74385f6f75744f66426f756e6473000000000000000000000000006044820152606401610bff565b50016001015190565b6000806136f683613d40565b909250905073ffffffffffffffffffffffffffffffffffffffff821661371c5761dead91505b600061372782613de4565b9050613734878483613e1a565b90508273ffffffffffffffffffffffffffffffffffffffff168761ffff167fbf551ec93859b170f9b2141bd9298bf3f64322c6f7beb2543a0cb669834118bf8360405161378391815260200190565b60405180910390a350505050505050565b60008060008060006137a586613ef0565b945094509450945094506000600760008b61ffff1661ffff168152602001908152602001600020896040516137da91906154e2565b908152604080516020928190038301902067ffffffffffffffff8b166000908152925281205460ff16915061380e85613de4565b90508161389b576138208b3083613e1a565b61ffff8c16600090815260076020526040908190209051919250600191613848908d906154e2565b908152604080516020928190038301902067ffffffffffffffff8d1660009081529252902080547fffffffffffffffffffffffffffffffffffffffffffffffffffffffffffffff00169115159190911790555b73ffffffffffffffffffffffffffffffffffffffff86163b61390c5760405173ffffffffffffffffffffffffffffffffffffffff871681527f9aedf5fdba8716db3b6705ca00150643309995d4f818a249ed6dde6677e7792d9060200160405180910390a150505050505050612876565b8a8a8a8a8a8a868a60008a61392b578b67ffffffffffffffff1661392d565b5a5b905060008061395f5a609663eaffd49a60e01b8e8e8e8d8d8d8d8d6040516024016124d4989796959493929190615594565b9150915081156139b8578751602089012060405161ffff8d16907fb8890edbfc1c74692f527444645f95489c3703cc2df42e4a366f5d06fa6cd884906139aa908e908e908690615614565b60405180910390a2506139c5565b6139c58b8b8b8b8561352b565b50505050505050505050505050505050505050505050565b60065460ff16156139f9576139f484848484613fc6565b612876565b815115612876576040517f08c379a000000000000000000000000000000000000000000000000000000000815260206004820152602660248201527f4f4654436f72653a205f61646170746572506172616d73206d7573742062652060448201527f656d7074792e00000000000000000000000000000000000000000000000000006064820152608401610bff565b600080613ab57f000000000000000000000000000000000000000000000000000000000000000084615643565b9050613ac1818461501b565b9150915091565b60003373ffffffffffffffffffffffffffffffffffffffff841614613af657613af183836140d9565b61193d565b61193d826141fb565b61ffff861660009081526001602052604081208054613b1d90614eb0565b80601f0160208091040260200160405190810160405280929190818152602001828054613b4990614eb0565b8015613b965780601f10613b6b57610100808354040283529160200191613b96565b820191906000526020600020905b815481529060010190602001808311613b7957829003601f168201915b505050505090508051600003613c2e576040517f08c379a000000000000000000000000000000000000000000000000000000000815260206004820152603060248201527f4c7a4170703a2064657374696e6174696f6e20636861696e206973206e6f742060448201527f61207472757374656420736f75726365000000000000000000000000000000006064820152608401610bff565b613c398787516142eb565b6040517fc580310000000000000000000000000000000000000000000000000000000000815273ffffffffffffffffffffffffffffffffffffffff7f0000000000000000000000000000000000000000000000000000000000000000169063c5803100908490613cb7908b9086908c908c908c908c90600401615657565b6000604051808303818588803b158015613cd057600080fd5b505af1158015613ce4573d6000803e3d6000fd5b505050505050505050505050565b60606001858573ffffffffffffffffffffffffffffffffffffffff89168587604051602001613d26969594939291906156cb565b604051602081830303815290604052905095945050505050565b60008080613d4e848261366a565b60ff16148015613d5f575082516029145b613dc5576040517f08c379a000000000000000000000000000000000000000000000000000000000815260206004820152601860248201527f4f4654436f72653a20696e76616c6964207061796c6f616400000000000000006044820152606401610bff565b613dd083600d614376565b9150613ddd836021614406565b9050915091565b6000610e807f000000000000000000000000000000000000000000000000000000000000000067ffffffffffffffff841661575e565b6000613e263083612b65565b60008373ffffffffffffffffffffffffffffffffffffffff168360405160006040518083038185875af1925050503d8060008114613e80576040519150601f19603f3d011682016040523d82523d6000602084013e613e85565b606091505b5050905080613497576040517f08c379a000000000000000000000000000000000000000000000000000000000815260206004820181905260248201527f4e61746976654f465456323a206661696c656420746f205f637265646974546f6044820152606401610bff565b600080806060816001613f03878361366a565b60ff1614613f6d576040517f08c379a000000000000000000000000000000000000000000000000000000000815260206004820152601860248201527f4f4654436f72653a20696e76616c6964207061796c6f616400000000000000006044820152606401610bff565b613f7886600d614376565b9350613f85866021614406565b9250613f92866029614486565b9450613f9f866049614406565b9050613fbb6051808851613fb3919061501b565b8891906131c5565b915091939590929450565b6000613fd183614506565b61ffff808716600090815260026020908152604080832093891683529290529081205491925090614003908490614f3c565b90506000811161406f576040517f08c379a000000000000000000000000000000000000000000000000000000000815260206004820152601a60248201527f4c7a4170703a206d696e4761734c696d6974206e6f74207365740000000000006044820152606401610bff565b8082101561157a576040517f08c379a000000000000000000000000000000000000000000000000000000000815260206004820152601b60248201527f4c7a4170703a20676173206c696d697420697320746f6f206c6f7700000000006044820152606401610bff565b73ffffffffffffffffffffffffffffffffffffffff8216600090815260086020526040812054828110156141da57826141123483614f3c565b10156141a0576040517f08c379a000000000000000000000000000000000000000000000000000000000815260206004820152602360248201527f4e61746976654f465456323a20496e73756666696369656e74206d73672e766160448201527f6c756500000000000000000000000000000000000000000000000000000000006064820152608401610bff565b60006141ac828561501b565b90506141b833826123b7565b6141c333308361287c565b81935080346141d2919061501b565b9250506141de565b3491505b6141e98433856127a5565b6141f484308561287c565b5092915050565b33600090815260086020526040812054828110156142d6578261421e3483614f3c565b10156142ac576040517f08c379a000000000000000000000000000000000000000000000000000000000815260206004820152602360248201527f4e61746976654f465456323a20496e73756666696369656e74206d73672e766160448201527f6c756500000000000000000000000000000000000000000000000000000000006064820152608401610bff565b60006142b8828561501b565b90506142c433826123b7565b6142ce813461501b565b9250506142da565b3491505b6142e533308561287c565b50919050565b61ffff82166000908152600360205260408120549081900361430c57506127105b80821115612d23576040517f08c379a000000000000000000000000000000000000000000000000000000000815260206004820181905260248201527f4c7a4170703a207061796c6f61642073697a6520697320746f6f206c617267656044820152606401610bff565b6000614383826014614f3c565b835110156143ed576040517f08c379a000000000000000000000000000000000000000000000000000000000815260206004820152601560248201527f746f416464726573735f6f75744f66426f756e647300000000000000000000006044820152606401610bff565b5001602001516c01000000000000000000000000900490565b6000614413826008614f3c565b8351101561447d576040517f08c379a000000000000000000000000000000000000000000000000000000000815260206004820152601460248201527f746f55696e7436345f6f75744f66426f756e64730000000000000000000000006044820152606401610bff565b50016008015190565b6000614493826020614f3c565b835110156144fd576040517f08c379a000000000000000000000000000000000000000000000000000000000815260206004820152601560248201527f746f427974657333325f6f75744f66426f756e647300000000000000000000006044820152606401610bff565b50016020015190565b6000602282511015614574576040517f08c379a000000000000000000000000000000000000000000000000000000000815260206004820152601c60248201527f4c7a4170703a20696e76616c69642061646170746572506172616d73000000006044820152606401610bff565b506022015190565b803561ffff8116811461458e57600080fd5b919050565b60008083601f8401126145a557600080fd5b50813567ffffffffffffffff8111156145bd57600080fd5b6020830191508360208285010111156145d557600080fd5b9250929050565b803567ffffffffffffffff8116811461458e57600080fd5b6000806000806000806080878903121561460d57600080fd5b6146168761457c565b9550602087013567ffffffffffffffff8082111561463357600080fd5b61463f8a838b01614593565b909750955085915061465360408a016145dc565b9450606089013591508082111561466957600080fd5b5061467689828a01614593565b979a9699509497509295939492505050565b60006020828403121561469a57600080fd5b81357fffffffff000000000000000000000000000000000000000000000000000000008116811461193d57600080fd5b60005b838110156146e55781810151838201526020016146cd565b50506000910152565b600081518084526147068160208601602086016146ca565b601f017fffffffffffffffffffffffffffffffffffffffffffffffffffffffffffffffe0169290920160200192915050565b60208152600061193d60208301846146ee565b60006020828403121561475d57600080fd5b61193d8261457c565b73ffffffffffffffffffffffffffffffffffffffff8116811461124357600080fd5b6000806040838503121561479b57600080fd5b82356147a681614766565b946020939093013593505050565b600080604083850312156147c757600080fd5b6147a68361457c565b6000806000606084860312156147e557600080fd5b83356147f081614766565b9250602084013561480081614766565b929592945050506040919091013590565b60006020828403121561482357600080fd5b5035919050565b8035801515811461458e57600080fd5b60008060008060008060a0878903121561485357600080fd5b61485c8761457c565b955060208701359450604087013593506148786060880161482a565b9250608087013567ffffffffffffffff81111561489457600080fd5b61467689828a01614593565b6000806000604084860312156148b557600080fd5b6148be8461457c565b9250602084013567ffffffffffffffff8111156148da57600080fd5b6148e686828701614593565b9497909650939450505050565b7f4e487b7100000000000000000000000000000000000000000000000000000000600052604160045260246000fd5b604051601f82017fffffffffffffffffffffffffffffffffffffffffffffffffffffffffffffffe016810167ffffffffffffffff81118282101715614969576149696148f3565b604052919050565b600067ffffffffffffffff82111561498b5761498b6148f3565b50601f017fffffffffffffffffffffffffffffffffffffffffffffffffffffffffffffffe01660200190565b6000806000606084860312156149cc57600080fd5b6149d58461457c565b9250602084013567ffffffffffffffff8111156149f157600080fd5b8401601f81018613614a0257600080fd5b8035614a15614a1082614971565b614922565b818152876020838501011115614a2a57600080fd5b81602084016020830137600060208383010152809450505050614a4f604085016145dc565b90509250925092565b6000606082840312156142e557600080fd5b600080600080600060a08688031215614a8257600080fd5b8535614a8d81614766565b9450614a9b6020870161457c565b93506040860135925060608601359150608086013567ffffffffffffffff811115614ac557600080fd5b614ad188828901614a58565b9150509295509295909350565b600060208284031215614af057600080fd5b813561193d81614766565b60008060008060008060008060e0898b031215614b1757600080fd5b8835614b2281614766565b9750614b3060208a0161457c565b96506040890135955060608901359450608089013567ffffffffffffffff80821115614b5b57600080fd5b614b678c838d01614593565b9096509450849150614b7b60a08c016145dc565b935060c08b0135915080821115614b9157600080fd5b50614b9e8b828c01614a58565b9150509295985092959890939650565b60008060408385031215614bc157600080fd5b614bca8361457c565b9150614bd86020840161457c565b90509250929050565b600080600080600080600080600060e08a8c031215614bff57600080fd5b614c088a61457c565b985060208a0135975060408a0135965060608a013567ffffffffffffffff80821115614c3357600080fd5b614c3f8d838e01614593565b9098509650869150614c5360808d016145dc565b9550614c6160a08d0161482a565b945060c08c0135915080821115614c7757600080fd5b50614c848c828d01614593565b915080935050809150509295985092959850929598565b600080600080600060808688031215614cb357600080fd5b614cbc8661457c565b9450614cca6020870161457c565b935060408601359250606086013567ffffffffffffffff811115614ced57600080fd5b614cf988828901614593565b969995985093965092949392505050565b60008060408385031215614d1d57600080fd5b8235614d2881614766565b91506020830135614d3881614766565b809150509250929050565b600080600060608486031215614d5857600080fd5b614d618461457c565b9250614d6f6020850161457c565b9150604084013590509250925092565b600060208284031215614d9157600080fd5b61193d8261482a565b6000806000806000806000806000806101008b8d031215614dba57600080fd5b614dc38b61457c565b995060208b013567ffffffffffffffff80821115614de057600080fd5b614dec8e838f01614593565b909b509950899150614e0060408e016145dc565b985060608d0135975060808d01359150614e1982614766565b90955060a08c0135945060c08c01359080821115614e3657600080fd5b50614e438d828e01614593565b9150809450508092505060e08b013590509295989b9194979a5092959850565b60008060008060808587031215614e7957600080fd5b614e828561457c565b9350614e906020860161457c565b92506040850135614ea081614766565b9396929550929360600135925050565b600181811c90821680614ec457607f821691505b6020821081036142e5577f4e487b7100000000000000000000000000000000000000000000000000000000600052602260045260246000fd5b8183823760009101908152919050565b7f4e487b7100000000000000000000000000000000000000000000000000000000600052601160045260246000fd5b80820180821115610e8057610e80614f0d565b8183528181602085013750600060208284010152600060207fffffffffffffffffffffffffffffffffffffffffffffffffffffffffffffffe0601f840116840101905092915050565b61ffff841681526040602082015260006123ae604083018486614f4f565b60008083357fffffffffffffffffffffffffffffffffffffffffffffffffffffffffffffffe1843603018112614feb57600080fd5b83018035915067ffffffffffffffff82111561500657600080fd5b6020019150368190038213156145d557600080fd5b81810381811115610e8057610e80614f0d565b8284823760609190911b7fffffffffffffffffffffffffffffffffffffffff000000000000000000000000169101908152601401919050565b601f821115612d2357600081815260208120601f850160051c8101602086101561508e5750805b601f850160051c820191505b8181101561157a5782815560010161509a565b815167ffffffffffffffff8111156150c7576150c76148f3565b6150db816150d58454614eb0565b84615067565b602080601f83116001811461512e57600084156150f85750858301515b7fffffffffffffffffffffffffffffffffffffffffffffffffffffffffffffffff600386901b1c1916600185901b17855561157a565b6000858152602081207fffffffffffffffffffffffffffffffffffffffffffffffffffffffffffffffe08616915b8281101561517b5788860151825594840194600190910190840161515c565b50858210156151b757878501517fffffffffffffffffffffffffffffffffffffffffffffffffffffffffffffffff600388901b60f8161c191681555b5050505050600190811b01905550565b600061ffff8088168352808716602084015250846040830152608060608301526151f5608083018486614f4f565b979650505050505050565b61ffff8616815260806020820152600061521e608083018688614f4f565b67ffffffffffffffff94909416604083015250606001529392505050565b61ffff8916815260c06020820152600061525a60c08301898b614f4f565b67ffffffffffffffff8816604084015286606084015285608084015282810360a0840152615289818587614f4f565b9b9a5050505050505050505050565b67ffffffffffffffff8311156152b0576152b06148f3565b6152c4836152be8354614eb0565b83615067565b6000601f84116001811461531657600085156152e05750838201355b7fffffffffffffffffffffffffffffffffffffffffffffffffffffffffffffffff600387901b1c1916600186901b178355610fc0565b6000838152602090207fffffffffffffffffffffffffffffffffffffffffffffffffffffffffffffffe0861690835b828110156153655786850135825560209485019460019092019101615345565b50868210156153a0577fffffffffffffffffffffffffffffffffffffffffffffffffffffffffffffffff60f88860031b161c19848701351681555b505060018560011b0183555050505050565b6000602082840312156153c457600080fd5b815167ffffffffffffffff8111156153db57600080fd5b8201601f810184136153ec57600080fd5b80516153fa614a1082614971565b81815285602083850101111561540f57600080fd5b6123ae8260208301602086016146ca565b61ffff8516815260806020820152600061543d60808301866146ee565b67ffffffffffffffff8516604084015282810360608401526151f581856146ee565b61ffff8616815273ffffffffffffffffffffffffffffffffffffffff8516602082015260a06040820152600061549860a08301866146ee565b841515606084015282810360808401526154b281856146ee565b98975050505050505050565b600080604083850312156154d157600080fd5b505080516020909101519092909150565b600082516154f48184602087016146ca565b9190910192915050565b61ffff8616815260a06020820152600061551b60a08301876146ee565b67ffffffffffffffff86166040840152828103606084015261553d81866146ee565b905082810360808401526154b281856146ee565b7f4e487b7100000000000000000000000000000000000000000000000000000000600052601260045260246000fd5b60008261558f5761558f615551565b500490565b600061010061ffff8b1683528060208401526155b28184018b6146ee565b905067ffffffffffffffff8916604084015287606084015273ffffffffffffffffffffffffffffffffffffffff871660808401528560a084015282810360c08401526155fe81866146ee565b9150508260e08301529998505050505050505050565b60608152600061562760608301866146ee565b67ffffffffffffffff9490941660208301525060400152919050565b60008261565257615652615551565b500690565b61ffff8716815260c06020820152600061567460c08301886146ee565b828103604084015261568681886146ee565b73ffffffffffffffffffffffffffffffffffffffff87811660608601528616608085015283810360a085015290506156be81856146ee565b9998505050505050505050565b7fff000000000000000000000000000000000000000000000000000000000000008760f81b16815285600182015260007fffffffffffffffff000000000000000000000000000000000000000000000000808760c01b166021840152856029840152808560c01b16604984015250825161574c8160518501602087016146ca565b91909101605101979650505050505050565b8082028115828204841417610e8057610e80614f0d56fea2646970667358221220a01ad24021f4665805e58d8f4d67b839429e4e6c1ab1b32d1bb765dfc09e9c7d64736f6c63430008130033",
  "devdoc": {
    "events": {
      "Approval(address,address,uint256)": {
        "details": "Emitted when the allowance of a `spender` for an `owner` is set by a call to {approve}. `value` is the new allowance."
      },
      "ReceiveFromChain(uint16,address,uint256)": {
        "details": "Emitted when `_amount` tokens are received from `_srcChainId` into the `_toAddress` on the local chain. `_nonce` is the inbound nonce."
      },
      "SendToChain(uint16,address,bytes32,uint256)": {
        "details": "Emitted when `_amount` tokens are moved from the `_sender` to (`_dstChainId`, `_toAddress`) `_nonce` is the outbound nonce"
      },
      "Transfer(address,address,uint256)": {
        "details": "Emitted when `value` tokens are moved from one account (`from`) to another (`to`). Note that `value` may be zero."
      }
    },
    "kind": "dev",
    "methods": {
      "allowance(address,address)": {
        "details": "See {IERC20-allowance}."
      },
      "approve(address,uint256)": {
        "details": "See {IERC20-approve}. NOTE: If `amount` is the maximum `uint256`, the allowance is not updated on `transferFrom`. This is semantically equivalent to an infinite approval. Requirements: - `spender` cannot be the zero address."
      },
      "balanceOf(address)": {
        "details": "See {IERC20-balanceOf}."
      },
      "circulatingSupply()": {
        "details": "returns the circulating amount of tokens on current chain"
      },
      "decimals()": {
        "details": "Returns the number of decimals used to get its user representation. For example, if `decimals` equals `2`, a balance of `505` tokens should be displayed to a user as `5.05` (`505 / 10 ** 2`). Tokens usually opt for a value of 18, imitating the relationship between Ether and Wei. This is the default value returned by this function, unless it's overridden. NOTE: This information is only used for _display_ purposes: it in no way affects any of the arithmetic of the contract, including {IERC20-balanceOf} and {IERC20-transfer}."
      },
      "decreaseAllowance(address,uint256)": {
        "details": "Atomically decreases the allowance granted to `spender` by the caller. This is an alternative to {approve} that can be used as a mitigation for problems described in {IERC20-approve}. Emits an {Approval} event indicating the updated allowance. Requirements: - `spender` cannot be the zero address. - `spender` must have allowance for the caller of at least `subtractedValue`."
      },
      "estimateSendFee(uint16,bytes32,uint256,bool,bytes)": {
        "details": "estimate send token `_tokenId` to (`_dstChainId`, `_toAddress`) _dstChainId - L0 defined chain id to send tokens too _toAddress - dynamic bytes array which contains the address to whom you are sending tokens to on the dstChain _amount - amount of the tokens to transfer _useZro - indicates to use zro to pay L0 fees _adapterParam - flexible bytes array to indicate messaging adapter services in L0"
      },
      "increaseAllowance(address,uint256)": {
        "details": "Atomically increases the allowance granted to `spender` by the caller. This is an alternative to {approve} that can be used as a mitigation for problems described in {IERC20-approve}. Emits an {Approval} event indicating the updated allowance. Requirements: - `spender` cannot be the zero address."
      },
      "name()": {
        "details": "Returns the name of the token."
      },
      "owner()": {
        "details": "Returns the address of the current owner."
      },
      "renounceOwnership()": {
        "details": "Leaves the contract without owner. It will not be possible to call `onlyOwner` functions. Can only be called by the current owner. NOTE: Renouncing ownership will leave the contract without an owner, thereby disabling any functionality that is only available to the owner."
      },
      "sendFrom(address,uint16,bytes32,uint256,(address,address,bytes))": {
        "details": "send `_amount` amount of token to (`_dstChainId`, `_toAddress`) from `_from` `_from` the owner of token `_dstChainId` the destination chain identifier `_toAddress` can be any size depending on the `dstChainId`. `_amount` the quantity of tokens in wei `_refundAddress` the address LayerZero refunds if too much message fee is sent `_zroPaymentAddress` set to address(0x0) if not paying in ZRO (LayerZero Token) `_adapterParams` is a flexible bytes array to indicate messaging adapter services"
      },
      "symbol()": {
        "details": "Returns the symbol of the token, usually a shorter version of the name."
      },
      "token()": {
        "details": "returns the address of the ERC20 token"
      },
      "totalSupply()": {
        "details": "See {IERC20-totalSupply}."
      },
      "transfer(address,uint256)": {
        "details": "See {IERC20-transfer}. Requirements: - `to` cannot be the zero address. - the caller must have a balance of at least `amount`."
      },
      "transferFrom(address,address,uint256)": {
        "details": "See {IERC20-transferFrom}. Emits an {Approval} event indicating the updated allowance. This is not required by the EIP. See the note at the beginning of {ERC20}. NOTE: Does not update the allowance if the current allowance is the maximum `uint256`. Requirements: - `from` and `to` cannot be the zero address. - `from` must have a balance of at least `amount`. - the caller must have allowance for ``from``'s tokens of at least `amount`."
      },
      "transferOwnership(address)": {
        "details": "Transfers ownership of the contract to a new account (`newOwner`). Can only be called by the current owner."
      }
    },
    "version": 1
  },
  "userdoc": {
    "kind": "user",
    "methods": {},
    "version": 1
  },
  "storageLayout": {
    "storage": [
      {
        "astId": 3467,
        "contract": "contracts/LzNativeTest.sol:LzNativeTest",
        "label": "_owner",
        "offset": 0,
        "slot": "0",
        "type": "t_address"
      },
      {
        "astId": 215,
        "contract": "contracts/LzNativeTest.sol:LzNativeTest",
        "label": "trustedRemoteLookup",
        "offset": 0,
        "slot": "1",
        "type": "t_mapping(t_uint16,t_bytes_storage)"
      },
      {
        "astId": 221,
        "contract": "contracts/LzNativeTest.sol:LzNativeTest",
        "label": "minDstGasLookup",
        "offset": 0,
        "slot": "2",
        "type": "t_mapping(t_uint16,t_mapping(t_uint16,t_uint256))"
      },
      {
        "astId": 225,
        "contract": "contracts/LzNativeTest.sol:LzNativeTest",
        "label": "payloadSizeLimitLookup",
        "offset": 0,
        "slot": "3",
        "type": "t_mapping(t_uint16,t_uint256)"
      },
      {
        "astId": 227,
        "contract": "contracts/LzNativeTest.sol:LzNativeTest",
        "label": "precrime",
        "offset": 0,
        "slot": "4",
        "type": "t_address"
      },
      {
        "astId": 764,
        "contract": "contracts/LzNativeTest.sol:LzNativeTest",
        "label": "failedMessages",
        "offset": 0,
        "slot": "5",
        "type": "t_mapping(t_uint16,t_mapping(t_bytes_memory_ptr,t_mapping(t_uint64,t_bytes32)))"
      },
      {
        "astId": 1865,
        "contract": "contracts/LzNativeTest.sol:LzNativeTest",
        "label": "useCustomAdapterParams",
        "offset": 0,
        "slot": "6",
        "type": "t_bool"
      },
      {
        "astId": 1873,
        "contract": "contracts/LzNativeTest.sol:LzNativeTest",
        "label": "creditedPackets",
        "offset": 0,
        "slot": "7",
        "type": "t_mapping(t_uint16,t_mapping(t_bytes_memory_ptr,t_mapping(t_uint64,t_bool)))"
      },
      {
        "astId": 3653,
        "contract": "contracts/LzNativeTest.sol:LzNativeTest",
        "label": "_balances",
        "offset": 0,
        "slot": "8",
        "type": "t_mapping(t_address,t_uint256)"
      },
      {
        "astId": 3659,
        "contract": "contracts/LzNativeTest.sol:LzNativeTest",
        "label": "_allowances",
        "offset": 0,
        "slot": "9",
        "type": "t_mapping(t_address,t_mapping(t_address,t_uint256))"
      },
      {
        "astId": 3661,
        "contract": "contracts/LzNativeTest.sol:LzNativeTest",
        "label": "_totalSupply",
        "offset": 0,
        "slot": "10",
        "type": "t_uint256"
      },
      {
        "astId": 3663,
        "contract": "contracts/LzNativeTest.sol:LzNativeTest",
        "label": "_name",
        "offset": 0,
        "slot": "11",
        "type": "t_string_storage"
      },
      {
        "astId": 3665,
        "contract": "contracts/LzNativeTest.sol:LzNativeTest",
        "label": "_symbol",
        "offset": 0,
        "slot": "12",
        "type": "t_string_storage"
      },
      {
        "astId": 3583,
        "contract": "contracts/LzNativeTest.sol:LzNativeTest",
        "label": "_status",
        "offset": 0,
        "slot": "13",
        "type": "t_uint256"
      }
    ],
    "types": {
      "t_address": {
        "encoding": "inplace",
        "label": "address",
        "numberOfBytes": "20"
      },
      "t_bool": {
        "encoding": "inplace",
        "label": "bool",
        "numberOfBytes": "1"
      },
      "t_bytes32": {
        "encoding": "inplace",
        "label": "bytes32",
        "numberOfBytes": "32"
      },
      "t_bytes_memory_ptr": {
        "encoding": "bytes",
        "label": "bytes",
        "numberOfBytes": "32"
      },
      "t_bytes_storage": {
        "encoding": "bytes",
        "label": "bytes",
        "numberOfBytes": "32"
      },
      "t_mapping(t_address,t_mapping(t_address,t_uint256))": {
        "encoding": "mapping",
        "key": "t_address",
        "label": "mapping(address => mapping(address => uint256))",
        "numberOfBytes": "32",
        "value": "t_mapping(t_address,t_uint256)"
      },
      "t_mapping(t_address,t_uint256)": {
        "encoding": "mapping",
        "key": "t_address",
        "label": "mapping(address => uint256)",
        "numberOfBytes": "32",
        "value": "t_uint256"
      },
      "t_mapping(t_bytes_memory_ptr,t_mapping(t_uint64,t_bool))": {
        "encoding": "mapping",
        "key": "t_bytes_memory_ptr",
        "label": "mapping(bytes => mapping(uint64 => bool))",
        "numberOfBytes": "32",
        "value": "t_mapping(t_uint64,t_bool)"
      },
      "t_mapping(t_bytes_memory_ptr,t_mapping(t_uint64,t_bytes32))": {
        "encoding": "mapping",
        "key": "t_bytes_memory_ptr",
        "label": "mapping(bytes => mapping(uint64 => bytes32))",
        "numberOfBytes": "32",
        "value": "t_mapping(t_uint64,t_bytes32)"
      },
      "t_mapping(t_uint16,t_bytes_storage)": {
        "encoding": "mapping",
        "key": "t_uint16",
        "label": "mapping(uint16 => bytes)",
        "numberOfBytes": "32",
        "value": "t_bytes_storage"
      },
      "t_mapping(t_uint16,t_mapping(t_bytes_memory_ptr,t_mapping(t_uint64,t_bool)))": {
        "encoding": "mapping",
        "key": "t_uint16",
        "label": "mapping(uint16 => mapping(bytes => mapping(uint64 => bool)))",
        "numberOfBytes": "32",
        "value": "t_mapping(t_bytes_memory_ptr,t_mapping(t_uint64,t_bool))"
      },
      "t_mapping(t_uint16,t_mapping(t_bytes_memory_ptr,t_mapping(t_uint64,t_bytes32)))": {
        "encoding": "mapping",
        "key": "t_uint16",
        "label": "mapping(uint16 => mapping(bytes => mapping(uint64 => bytes32)))",
        "numberOfBytes": "32",
        "value": "t_mapping(t_bytes_memory_ptr,t_mapping(t_uint64,t_bytes32))"
      },
      "t_mapping(t_uint16,t_mapping(t_uint16,t_uint256))": {
        "encoding": "mapping",
        "key": "t_uint16",
        "label": "mapping(uint16 => mapping(uint16 => uint256))",
        "numberOfBytes": "32",
        "value": "t_mapping(t_uint16,t_uint256)"
      },
      "t_mapping(t_uint16,t_uint256)": {
        "encoding": "mapping",
        "key": "t_uint16",
        "label": "mapping(uint16 => uint256)",
        "numberOfBytes": "32",
        "value": "t_uint256"
      },
      "t_mapping(t_uint64,t_bool)": {
        "encoding": "mapping",
        "key": "t_uint64",
        "label": "mapping(uint64 => bool)",
        "numberOfBytes": "32",
        "value": "t_bool"
      },
      "t_mapping(t_uint64,t_bytes32)": {
        "encoding": "mapping",
        "key": "t_uint64",
        "label": "mapping(uint64 => bytes32)",
        "numberOfBytes": "32",
        "value": "t_bytes32"
      },
      "t_string_storage": {
        "encoding": "bytes",
        "label": "string",
        "numberOfBytes": "32"
      },
      "t_uint16": {
        "encoding": "inplace",
        "label": "uint16",
        "numberOfBytes": "2"
      },
      "t_uint256": {
        "encoding": "inplace",
        "label": "uint256",
        "numberOfBytes": "32"
      },
      "t_uint64": {
        "encoding": "inplace",
        "label": "uint64",
        "numberOfBytes": "8"
      }
    }
  }
}